{
  "contractName": "NFT_token",
  "abi": [
    {
      "inputs": [
        {
          "internalType": "string",
          "name": "_name",
          "type": "string"
        },
        {
          "internalType": "string",
          "name": "_symbol",
          "type": "string"
        }
      ],
      "stateMutability": "nonpayable",
      "type": "constructor"
    },
    {
      "anonymous": false,
      "inputs": [
        {
          "indexed": true,
          "internalType": "address",
          "name": "owner",
          "type": "address"
        },
        {
          "indexed": true,
          "internalType": "address",
          "name": "approved",
          "type": "address"
        },
        {
          "indexed": true,
          "internalType": "uint256",
          "name": "tokenId",
          "type": "uint256"
        }
      ],
      "name": "Approval",
      "type": "event"
    },
    {
      "anonymous": false,
      "inputs": [
        {
          "indexed": true,
          "internalType": "address",
          "name": "owner",
          "type": "address"
        },
        {
          "indexed": true,
          "internalType": "address",
          "name": "operator",
          "type": "address"
        },
        {
          "indexed": false,
          "internalType": "bool",
          "name": "approved",
          "type": "bool"
        }
      ],
      "name": "ApprovalForAll",
      "type": "event"
    },
    {
      "anonymous": false,
      "inputs": [
        {
          "indexed": true,
          "internalType": "address",
          "name": "previousOwner",
          "type": "address"
        },
        {
          "indexed": true,
          "internalType": "address",
          "name": "newOwner",
          "type": "address"
        }
      ],
      "name": "OwnershipTransferred",
      "type": "event"
    },
    {
      "anonymous": false,
      "inputs": [
        {
          "indexed": true,
          "internalType": "address",
          "name": "from",
          "type": "address"
        },
        {
          "indexed": true,
          "internalType": "address",
          "name": "to",
          "type": "address"
        },
        {
          "indexed": true,
          "internalType": "uint256",
          "name": "tokenId",
          "type": "uint256"
        }
      ],
      "name": "Transfer",
      "type": "event"
    },
    {
      "inputs": [
        {
          "internalType": "address",
          "name": "to",
          "type": "address"
        },
        {
          "internalType": "uint256",
          "name": "tokenId",
          "type": "uint256"
        }
      ],
      "name": "approve",
      "outputs": [],
      "stateMutability": "nonpayable",
      "type": "function"
    },
    {
      "inputs": [
        {
          "internalType": "address",
          "name": "owner",
          "type": "address"
        }
      ],
      "name": "balanceOf",
      "outputs": [
        {
          "internalType": "uint256",
          "name": "",
          "type": "uint256"
        }
      ],
      "stateMutability": "view",
      "type": "function"
    },
    {
      "inputs": [],
      "name": "baseExtension",
      "outputs": [
        {
          "internalType": "string",
          "name": "",
          "type": "string"
        }
      ],
      "stateMutability": "view",
      "type": "function"
    },
    {
      "inputs": [],
      "name": "baseURI",
      "outputs": [
        {
          "internalType": "string",
          "name": "",
          "type": "string"
        }
      ],
      "stateMutability": "view",
      "type": "function"
    },
    {
      "inputs": [
        {
          "internalType": "uint256",
          "name": "tokenId",
          "type": "uint256"
        }
      ],
      "name": "getApproved",
      "outputs": [
        {
          "internalType": "address",
          "name": "",
          "type": "address"
        }
      ],
      "stateMutability": "view",
      "type": "function"
    },
    {
      "inputs": [
        {
          "internalType": "address",
          "name": "owner",
          "type": "address"
        },
        {
          "internalType": "address",
          "name": "operator",
          "type": "address"
        }
      ],
      "name": "isApprovedForAll",
      "outputs": [
        {
          "internalType": "bool",
          "name": "",
          "type": "bool"
        }
      ],
      "stateMutability": "view",
      "type": "function"
    },
    {
      "inputs": [],
      "name": "maxMintAmount",
      "outputs": [
        {
          "internalType": "uint256",
          "name": "",
          "type": "uint256"
        }
      ],
      "stateMutability": "view",
      "type": "function"
    },
    {
      "inputs": [],
      "name": "maxSupply",
      "outputs": [
        {
          "internalType": "uint256",
          "name": "",
          "type": "uint256"
        }
      ],
      "stateMutability": "view",
      "type": "function"
    },
    {
      "inputs": [],
      "name": "name",
      "outputs": [
        {
          "internalType": "string",
          "name": "",
          "type": "string"
        }
      ],
      "stateMutability": "view",
      "type": "function"
    },
    {
      "inputs": [],
      "name": "owner",
      "outputs": [
        {
          "internalType": "address",
          "name": "",
          "type": "address"
        }
      ],
      "stateMutability": "view",
      "type": "function"
    },
    {
      "inputs": [
        {
          "internalType": "uint256",
          "name": "tokenId",
          "type": "uint256"
        }
      ],
      "name": "ownerOf",
      "outputs": [
        {
          "internalType": "address",
          "name": "",
          "type": "address"
        }
      ],
      "stateMutability": "view",
      "type": "function"
    },
    {
      "inputs": [],
      "name": "paused",
      "outputs": [
        {
          "internalType": "bool",
          "name": "",
          "type": "bool"
        }
      ],
      "stateMutability": "view",
      "type": "function"
    },
    {
      "inputs": [],
      "name": "renounceOwnership",
      "outputs": [],
      "stateMutability": "nonpayable",
      "type": "function"
    },
    {
      "inputs": [
        {
          "internalType": "address",
          "name": "from",
          "type": "address"
        },
        {
          "internalType": "address",
          "name": "to",
          "type": "address"
        },
        {
          "internalType": "uint256",
          "name": "tokenId",
          "type": "uint256"
        }
      ],
      "name": "safeTransferFrom",
      "outputs": [],
      "stateMutability": "nonpayable",
      "type": "function"
    },
    {
      "inputs": [
        {
          "internalType": "address",
          "name": "from",
          "type": "address"
        },
        {
          "internalType": "address",
          "name": "to",
          "type": "address"
        },
        {
          "internalType": "uint256",
          "name": "tokenId",
          "type": "uint256"
        },
        {
          "internalType": "bytes",
          "name": "_data",
          "type": "bytes"
        }
      ],
      "name": "safeTransferFrom",
      "outputs": [],
      "stateMutability": "nonpayable",
      "type": "function"
    },
    {
      "inputs": [
        {
          "internalType": "address",
          "name": "operator",
          "type": "address"
        },
        {
          "internalType": "bool",
          "name": "approved",
          "type": "bool"
        }
      ],
      "name": "setApprovalForAll",
      "outputs": [],
      "stateMutability": "nonpayable",
      "type": "function"
    },
    {
      "inputs": [
        {
          "internalType": "bytes4",
          "name": "interfaceId",
          "type": "bytes4"
        }
      ],
      "name": "supportsInterface",
      "outputs": [
        {
          "internalType": "bool",
          "name": "",
          "type": "bool"
        }
      ],
      "stateMutability": "view",
      "type": "function"
    },
    {
      "inputs": [],
      "name": "symbol",
      "outputs": [
        {
          "internalType": "string",
          "name": "",
          "type": "string"
        }
      ],
      "stateMutability": "view",
      "type": "function"
    },
    {
      "inputs": [
        {
          "internalType": "uint256",
          "name": "index",
          "type": "uint256"
        }
      ],
      "name": "tokenByIndex",
      "outputs": [
        {
          "internalType": "uint256",
          "name": "",
          "type": "uint256"
        }
      ],
      "stateMutability": "view",
      "type": "function"
    },
    {
      "inputs": [
        {
          "internalType": "address",
          "name": "owner",
          "type": "address"
        },
        {
          "internalType": "uint256",
          "name": "index",
          "type": "uint256"
        }
      ],
      "name": "tokenOfOwnerByIndex",
      "outputs": [
        {
          "internalType": "uint256",
          "name": "",
          "type": "uint256"
        }
      ],
      "stateMutability": "view",
      "type": "function"
    },
    {
      "inputs": [],
      "name": "totalSupply",
      "outputs": [
        {
          "internalType": "uint256",
          "name": "",
          "type": "uint256"
        }
      ],
      "stateMutability": "view",
      "type": "function"
    },
    {
      "inputs": [
        {
          "internalType": "address",
          "name": "from",
          "type": "address"
        },
        {
          "internalType": "address",
          "name": "to",
          "type": "address"
        },
        {
          "internalType": "uint256",
          "name": "tokenId",
          "type": "uint256"
        }
      ],
      "name": "transferFrom",
      "outputs": [],
      "stateMutability": "nonpayable",
      "type": "function"
    },
    {
      "inputs": [
        {
          "internalType": "address",
          "name": "newOwner",
          "type": "address"
        }
      ],
      "name": "transferOwnership",
      "outputs": [],
      "stateMutability": "nonpayable",
      "type": "function"
    },
    {
      "inputs": [
        {
          "internalType": "string",
          "name": "_newBaseURI",
          "type": "string"
        }
      ],
      "name": "setBaseURI",
      "outputs": [],
      "stateMutability": "nonpayable",
      "type": "function"
    },
    {
      "inputs": [
        {
          "internalType": "uint256",
          "name": "_newmaxMintAmount",
          "type": "uint256"
        }
      ],
      "name": "setmaxMintAmount",
      "outputs": [],
      "stateMutability": "nonpayable",
      "type": "function"
    },
    {
      "inputs": [
        {
          "internalType": "bool",
          "name": "_state",
          "type": "bool"
        }
      ],
      "name": "pause",
      "outputs": [],
      "stateMutability": "nonpayable",
      "type": "function"
    },
    {
      "inputs": [
        {
          "internalType": "uint256",
          "name": "_newmaxSupply",
          "type": "uint256"
        }
      ],
      "name": "setMaxSupply",
      "outputs": [],
      "stateMutability": "nonpayable",
      "type": "function"
    },
    {
      "inputs": [
        {
          "internalType": "address",
          "name": "_to",
          "type": "address"
        },
        {
          "internalType": "uint256",
          "name": "_mintAmount",
          "type": "uint256"
        }
      ],
      "name": "mint",
      "outputs": [],
      "stateMutability": "payable",
      "type": "function"
    },
    {
      "inputs": [
        {
          "internalType": "address",
          "name": "_owner",
          "type": "address"
        }
      ],
      "name": "walletOfOwner",
      "outputs": [
        {
          "internalType": "uint256[]",
          "name": "",
          "type": "uint256[]"
        }
      ],
      "stateMutability": "view",
      "type": "function"
    },
    {
      "inputs": [
        {
          "internalType": "uint256",
          "name": "tokenId",
          "type": "uint256"
        }
      ],
      "name": "tokenURI",
      "outputs": [
        {
          "internalType": "string",
          "name": "",
          "type": "string"
        }
      ],
      "stateMutability": "view",
      "type": "function"
    }
  ],
  "bytecode": "0x608060405260405180602001604052806000815250600b90805190602001906200002b929190620001ff565b506040518060400160405280600581526020017f2e6a736f6e000000000000000000000000000000000000000000000000000000815250600c908051906020019062000079929190620001ff565b50612710600d556014600e556000600f60006101000a81548160ff021916908315150217905550348015620000ad57600080fd5b5060405162004425380380620044258339818101604052810190620000d391906200044c565b81818160009080519060200190620000ed929190620001ff565b50806001908051906020019062000106929190620001ff565b505050620001296200011d6200013160201b60201c565b6200013960201b60201c565b505062000536565b600033905090565b6000600a60009054906101000a900473ffffffffffffffffffffffffffffffffffffffff16905081600a60006101000a81548173ffffffffffffffffffffffffffffffffffffffff021916908373ffffffffffffffffffffffffffffffffffffffff1602179055508173ffffffffffffffffffffffffffffffffffffffff168173ffffffffffffffffffffffffffffffffffffffff167f8be0079c531659141344cd1fd0a4f28419497f9722a3daafe3b4186f6b6457e060405160405180910390a35050565b8280546200020d9062000500565b90600052602060002090601f0160209004810192826200023157600085556200027d565b82601f106200024c57805160ff19168380011785556200027d565b828001600101855582156200027d579182015b828111156200027c5782518255916020019190600101906200025f565b5b5090506200028c919062000290565b5090565b5b80821115620002ab57600081600090555060010162000291565b5090565b6000604051905090565b600080fd5b600080fd5b600080fd5b600080fd5b6000601f19601f8301169050919050565b7f4e487b7100000000000000000000000000000000000000000000000000000000600052604160045260246000fd5b6200031882620002cd565b810181811067ffffffffffffffff821117156200033a5762000339620002de565b5b80604052505050565b60006200034f620002af565b90506200035d82826200030d565b919050565b600067ffffffffffffffff82111562000380576200037f620002de565b5b6200038b82620002cd565b9050602081019050919050565b60005b83811015620003b85780820151818401526020810190506200039b565b83811115620003c8576000848401525b50505050565b6000620003e5620003df8462000362565b62000343565b905082815260208101848484011115620004045762000403620002c8565b5b6200041184828562000398565b509392505050565b600082601f830112620004315762000430620002c3565b5b815162000443848260208601620003ce565b91505092915050565b60008060408385031215620004665762000465620002b9565b5b600083015167ffffffffffffffff811115620004875762000486620002be565b5b620004958582860162000419565b925050602083015167ffffffffffffffff811115620004b957620004b8620002be565b5b620004c78582860162000419565b9150509250929050565b7f4e487b7100000000000000000000000000000000000000000000000000000000600052602260045260246000fd5b600060028204905060018216806200051957607f821691505b6020821081141562000530576200052f620004d1565b5b50919050565b613edf80620005466000396000f3fe6080604052600436106101cd5760003560e01c80636352211e116100f757806395d89b4111610095578063c87b56dd11610064578063c87b56dd14610679578063d5abeb01146106b6578063e985e9c5146106e1578063f2fde38b1461071e576101cd565b806395d89b41146105d1578063a22cb465146105fc578063b88d4fde14610625578063c66828621461064e576101cd565b806370a08231116100d157806370a0823114610529578063715018a6146105665780637f00c7a61461057d5780638da5cb5b146105a6576101cd565b80636352211e146104985780636c0360eb146104d55780636f8b44b014610500576101cd565b806323b872dd1161016f578063438b63001161013e578063438b6300146103ca5780634f6ccce71461040757806355f804b3146104445780635c975abb1461046d576101cd565b806323b872dd1461031f5780632f745c591461034857806340c10f191461038557806342842e0e146103a1576101cd565b8063081812fc116101ab578063081812fc14610263578063095ea7b3146102a057806318160ddd146102c9578063239c70ae146102f4576101cd565b806301ffc9a7146101d257806302329a291461020f57806306fdde0314610238575b600080fd5b3480156101de57600080fd5b506101f960048036038101906101f49190612979565b610747565b60405161020691906129c1565b60405180910390f35b34801561021b57600080fd5b5061023660048036038101906102319190612a08565b6107c1565b005b34801561024457600080fd5b5061024d61085a565b60405161025a9190612ace565b60405180910390f35b34801561026f57600080fd5b5061028a60048036038101906102859190612b26565b6108ec565b6040516102979190612b94565b60405180910390f35b3480156102ac57600080fd5b506102c760048036038101906102c29190612bdb565b610971565b005b3480156102d557600080fd5b506102de610a89565b6040516102eb9190612c2a565b60405180910390f35b34801561030057600080fd5b50610309610a96565b6040516103169190612c2a565b60405180910390f35b34801561032b57600080fd5b5061034660048036038101906103419190612c45565b610a9c565b005b34801561035457600080fd5b5061036f600480360381019061036a9190612bdb565b610afc565b60405161037c9190612c2a565b60405180910390f35b61039f600480360381019061039a9190612bdb565b610ba1565b005b3480156103ad57600080fd5b506103c860048036038101906103c39190612c45565b610cb5565b005b3480156103d657600080fd5b506103f160048036038101906103ec9190612c98565b610cd5565b6040516103fe9190612d83565b60405180910390f35b34801561041357600080fd5b5061042e60048036038101906104299190612b26565b610d83565b60405161043b9190612c2a565b60405180910390f35b34801561045057600080fd5b5061046b60048036038101906104669190612eda565b610df4565b005b34801561047957600080fd5b50610482610e8a565b60405161048f91906129c1565b60405180910390f35b3480156104a457600080fd5b506104bf60048036038101906104ba9190612b26565b610e9d565b6040516104cc9190612b94565b60405180910390f35b3480156104e157600080fd5b506104ea610f4f565b6040516104f79190612ace565b60405180910390f35b34801561050c57600080fd5b5061052760048036038101906105229190612b26565b610fdd565b005b34801561053557600080fd5b50610550600480360381019061054b9190612c98565b611063565b60405161055d9190612c2a565b60405180910390f35b34801561057257600080fd5b5061057b61111b565b005b34801561058957600080fd5b506105a4600480360381019061059f9190612b26565b6111a3565b005b3480156105b257600080fd5b506105bb611229565b6040516105c89190612b94565b60405180910390f35b3480156105dd57600080fd5b506105e6611253565b6040516105f39190612ace565b60405180910390f35b34801561060857600080fd5b50610623600480360381019061061e9190612f23565b6112e5565b005b34801561063157600080fd5b5061064c60048036038101906106479190613004565b611466565b005b34801561065a57600080fd5b506106636114c8565b6040516106709190612ace565b60405180910390f35b34801561068557600080fd5b506106a0600480360381019061069b9190612b26565b611556565b6040516106ad9190612ace565b60405180910390f35b3480156106c257600080fd5b506106cb611600565b6040516106d89190612c2a565b60405180910390f35b3480156106ed57600080fd5b5061070860048036038101906107039190613087565b611606565b60405161071591906129c1565b60405180910390f35b34801561072a57600080fd5b5061074560048036038101906107409190612c98565b61169a565b005b60007f780e9d63000000000000000000000000000000000000000000000000000000007bffffffffffffffffffffffffffffffffffffffffffffffffffffffff1916827bffffffffffffffffffffffffffffffffffffffffffffffffffffffff191614806107ba57506107b982611792565b5b9050919050565b6107c9611874565b73ffffffffffffffffffffffffffffffffffffffff166107e7611229565b73ffffffffffffffffffffffffffffffffffffffff161461083d576040517f08c379a000000000000000000000000000000000000000000000000000000000815260040161083490613113565b60405180910390fd5b80600f60006101000a81548160ff02191690831515021790555050565b60606000805461086990613162565b80601f016020809104026020016040519081016040528092919081815260200182805461089590613162565b80156108e25780601f106108b7576101008083540402835291602001916108e2565b820191906000526020600020905b8154815290600101906020018083116108c557829003601f168201915b5050505050905090565b60006108f78261187c565b610936576040517f08c379a000000000000000000000000000000000000000000000000000000000815260040161092d90613206565b60405180910390fd5b6004600083815260200190815260200160002060009054906101000a900473ffffffffffffffffffffffffffffffffffffffff169050919050565b600061097c82610e9d565b90508073ffffffffffffffffffffffffffffffffffffffff168373ffffffffffffffffffffffffffffffffffffffff1614156109ed576040517f08c379a00000000000000000000000000000000000000000000000000000000081526004016109e490613298565b60405180910390fd5b8073ffffffffffffffffffffffffffffffffffffffff16610a0c611874565b73ffffffffffffffffffffffffffffffffffffffff161480610a3b5750610a3a81610a35611874565b611606565b5b610a7a576040517f08c379a0000000000000000000000000000000000000000000000000000000008152600401610a719061332a565b60405180910390fd5b610a8483836118e8565b505050565b6000600880549050905090565b600e5481565b610aad610aa7611874565b826119a1565b610aec576040517f08c379a0000000000000000000000000000000000000000000000000000000008152600401610ae3906133bc565b60405180910390fd5b610af7838383611a7f565b505050565b6000610b0783611063565b8210610b48576040517f08c379a0000000000000000000000000000000000000000000000000000000008152600401610b3f9061344e565b60405180910390fd5b600660008473ffffffffffffffffffffffffffffffffffffffff1673ffffffffffffffffffffffffffffffffffffffff168152602001908152602001600020600083815260200190815260200160002054905092915050565b610ba9611874565b73ffffffffffffffffffffffffffffffffffffffff16610bc7611229565b73ffffffffffffffffffffffffffffffffffffffff1614610c1d576040517f08c379a0000000000000000000000000000000000000000000000000000000008152600401610c1490613113565b60405180910390fd5b6000610c27610a89565b9050600f60009054906101000a900460ff1615610c4357600080fd5b60008211610c5057600080fd5b600e54821115610c5f57600080fd5b600d548282610c6e919061349d565b1115610c7957600080fd5b6000600190505b828111610caf57610c9c848284610c97919061349d565b611cdb565b8080610ca7906134f3565b915050610c80565b50505050565b610cd083838360405180602001604052806000815250611466565b505050565b60606000610ce283611063565b905060008167ffffffffffffffff811115610d0057610cff612daf565b5b604051908082528060200260200182016040528015610d2e5781602001602082028036833780820191505090505b50905060005b82811015610d7857610d468582610afc565b828281518110610d5957610d5861353c565b5b6020026020010181815250508080610d70906134f3565b915050610d34565b508092505050919050565b6000610d8d610a89565b8210610dce576040517f08c379a0000000000000000000000000000000000000000000000000000000008152600401610dc5906135dd565b60405180910390fd5b60088281548110610de257610de161353c565b5b90600052602060002001549050919050565b610dfc611874565b73ffffffffffffffffffffffffffffffffffffffff16610e1a611229565b73ffffffffffffffffffffffffffffffffffffffff1614610e70576040517f08c379a0000000000000000000000000000000000000000000000000000000008152600401610e6790613113565b60405180910390fd5b80600b9080519060200190610e8692919061286a565b5050565b600f60009054906101000a900460ff1681565b6000806002600084815260200190815260200160002060009054906101000a900473ffffffffffffffffffffffffffffffffffffffff169050600073ffffffffffffffffffffffffffffffffffffffff168173ffffffffffffffffffffffffffffffffffffffff161415610f46576040517f08c379a0000000000000000000000000000000000000000000000000000000008152600401610f3d9061366f565b60405180910390fd5b80915050919050565b600b8054610f5c90613162565b80601f0160208091040260200160405190810160405280929190818152602001828054610f8890613162565b8015610fd55780601f10610faa57610100808354040283529160200191610fd5565b820191906000526020600020905b815481529060010190602001808311610fb857829003601f168201915b505050505081565b610fe5611874565b73ffffffffffffffffffffffffffffffffffffffff16611003611229565b73ffffffffffffffffffffffffffffffffffffffff1614611059576040517f08c379a000000000000000000000000000000000000000000000000000000000815260040161105090613113565b60405180910390fd5b80600d8190555050565b60008073ffffffffffffffffffffffffffffffffffffffff168273ffffffffffffffffffffffffffffffffffffffff1614156110d4576040517f08c379a00000000000000000000000000000000000000000000000000000000081526004016110cb90613701565b60405180910390fd5b600360008373ffffffffffffffffffffffffffffffffffffffff1673ffffffffffffffffffffffffffffffffffffffff168152602001908152602001600020549050919050565b611123611874565b73ffffffffffffffffffffffffffffffffffffffff16611141611229565b73ffffffffffffffffffffffffffffffffffffffff1614611197576040517f08c379a000000000000000000000000000000000000000000000000000000000815260040161118e90613113565b60405180910390fd5b6111a16000611cf9565b565b6111ab611874565b73ffffffffffffffffffffffffffffffffffffffff166111c9611229565b73ffffffffffffffffffffffffffffffffffffffff161461121f576040517f08c379a000000000000000000000000000000000000000000000000000000000815260040161121690613113565b60405180910390fd5b80600e8190555050565b6000600a60009054906101000a900473ffffffffffffffffffffffffffffffffffffffff16905090565b60606001805461126290613162565b80601f016020809104026020016040519081016040528092919081815260200182805461128e90613162565b80156112db5780601f106112b0576101008083540402835291602001916112db565b820191906000526020600020905b8154815290600101906020018083116112be57829003601f168201915b5050505050905090565b6112ed611874565b73ffffffffffffffffffffffffffffffffffffffff168273ffffffffffffffffffffffffffffffffffffffff16141561135b576040517f08c379a00000000000000000000000000000000000000000000000000000000081526004016113529061376d565b60405180910390fd5b8060056000611368611874565b73ffffffffffffffffffffffffffffffffffffffff1673ffffffffffffffffffffffffffffffffffffffff16815260200190815260200160002060008473ffffffffffffffffffffffffffffffffffffffff1673ffffffffffffffffffffffffffffffffffffffff16815260200190815260200160002060006101000a81548160ff0219169083151502179055508173ffffffffffffffffffffffffffffffffffffffff16611415611874565b73ffffffffffffffffffffffffffffffffffffffff167f17307eab39ab6107e8899845ad3d59bd9653f200f220920489ca2b5937696c318360405161145a91906129c1565b60405180910390a35050565b611477611471611874565b836119a1565b6114b6576040517f08c379a00000000000000000000000000000000000000000000000000000000081526004016114ad906133bc565b60405180910390fd5b6114c284848484611dbf565b50505050565b600c80546114d590613162565b80601f016020809104026020016040519081016040528092919081815260200182805461150190613162565b801561154e5780601f106115235761010080835404028352916020019161154e565b820191906000526020600020905b81548152906001019060200180831161153157829003601f168201915b505050505081565b60606115618261187c565b6115a0576040517f08c379a0000000000000000000000000000000000000000000000000000000008152600401611597906137ff565b60405180910390fd5b60006115aa611e1b565b905060008151116115ca57604051806020016040528060008152506115f8565b806115d484611ead565b600c6040516020016115e8939291906138ef565b6040516020818303038152906040525b915050919050565b600d5481565b6000600560008473ffffffffffffffffffffffffffffffffffffffff1673ffffffffffffffffffffffffffffffffffffffff16815260200190815260200160002060008373ffffffffffffffffffffffffffffffffffffffff1673ffffffffffffffffffffffffffffffffffffffff16815260200190815260200160002060009054906101000a900460ff16905092915050565b6116a2611874565b73ffffffffffffffffffffffffffffffffffffffff166116c0611229565b73ffffffffffffffffffffffffffffffffffffffff1614611716576040517f08c379a000000000000000000000000000000000000000000000000000000000815260040161170d90613113565b60405180910390fd5b600073ffffffffffffffffffffffffffffffffffffffff168173ffffffffffffffffffffffffffffffffffffffff161415611786576040517f08c379a000000000000000000000000000000000000000000000000000000000815260040161177d90613992565b60405180910390fd5b61178f81611cf9565b50565b60007f80ac58cd000000000000000000000000000000000000000000000000000000007bffffffffffffffffffffffffffffffffffffffffffffffffffffffff1916827bffffffffffffffffffffffffffffffffffffffffffffffffffffffff1916148061185d57507f5b5e139f000000000000000000000000000000000000000000000000000000007bffffffffffffffffffffffffffffffffffffffffffffffffffffffff1916827bffffffffffffffffffffffffffffffffffffffffffffffffffffffff1916145b8061186d575061186c8261200e565b5b9050919050565b600033905090565b60008073ffffffffffffffffffffffffffffffffffffffff166002600084815260200190815260200160002060009054906101000a900473ffffffffffffffffffffffffffffffffffffffff1673ffffffffffffffffffffffffffffffffffffffff1614159050919050565b816004600083815260200190815260200160002060006101000a81548173ffffffffffffffffffffffffffffffffffffffff021916908373ffffffffffffffffffffffffffffffffffffffff160217905550808273ffffffffffffffffffffffffffffffffffffffff1661195b83610e9d565b73ffffffffffffffffffffffffffffffffffffffff167f8c5be1e5ebec7d5bd14f71427d1e84f3dd0314c0f7b2291e5b200ac8c7c3b92560405160405180910390a45050565b60006119ac8261187c565b6119eb576040517f08c379a00000000000000000000000000000000000000000000000000000000081526004016119e290613a24565b60405180910390fd5b60006119f683610e9d565b90508073ffffffffffffffffffffffffffffffffffffffff168473ffffffffffffffffffffffffffffffffffffffff161480611a6557508373ffffffffffffffffffffffffffffffffffffffff16611a4d846108ec565b73ffffffffffffffffffffffffffffffffffffffff16145b80611a765750611a758185611606565b5b91505092915050565b8273ffffffffffffffffffffffffffffffffffffffff16611a9f82610e9d565b73ffffffffffffffffffffffffffffffffffffffff1614611af5576040517f08c379a0000000000000000000000000000000000000000000000000000000008152600401611aec90613ab6565b60405180910390fd5b600073ffffffffffffffffffffffffffffffffffffffff168273ffffffffffffffffffffffffffffffffffffffff161415611b65576040517f08c379a0000000000000000000000000000000000000000000000000000000008152600401611b5c90613b48565b60405180910390fd5b611b70838383612078565b611b7b6000826118e8565b6001600360008573ffffffffffffffffffffffffffffffffffffffff1673ffffffffffffffffffffffffffffffffffffffff1681526020019081526020016000206000828254611bcb9190613b68565b925050819055506001600360008473ffffffffffffffffffffffffffffffffffffffff1673ffffffffffffffffffffffffffffffffffffffff1681526020019081526020016000206000828254611c22919061349d565b92505081905550816002600083815260200190815260200160002060006101000a81548173ffffffffffffffffffffffffffffffffffffffff021916908373ffffffffffffffffffffffffffffffffffffffff160217905550808273ffffffffffffffffffffffffffffffffffffffff168473ffffffffffffffffffffffffffffffffffffffff167fddf252ad1be2c89b69c2b068fc378daa952ba7f163c4a11628f55a4df523b3ef60405160405180910390a4505050565b611cf582826040518060200160405280600081525061218c565b5050565b6000600a60009054906101000a900473ffffffffffffffffffffffffffffffffffffffff16905081600a60006101000a81548173ffffffffffffffffffffffffffffffffffffffff021916908373ffffffffffffffffffffffffffffffffffffffff1602179055508173ffffffffffffffffffffffffffffffffffffffff168173ffffffffffffffffffffffffffffffffffffffff167f8be0079c531659141344cd1fd0a4f28419497f9722a3daafe3b4186f6b6457e060405160405180910390a35050565b611dca848484611a7f565b611dd6848484846121e7565b611e15576040517f08c379a0000000000000000000000000000000000000000000000000000000008152600401611e0c90613c0e565b60405180910390fd5b50505050565b6060600b8054611e2a90613162565b80601f0160208091040260200160405190810160405280929190818152602001828054611e5690613162565b8015611ea35780601f10611e7857610100808354040283529160200191611ea3565b820191906000526020600020905b815481529060010190602001808311611e8657829003601f168201915b5050505050905090565b60606000821415611ef5576040518060400160405280600181526020017f30000000000000000000000000000000000000000000000000000000000000008152509050612009565b600082905060005b60008214611f27578080611f10906134f3565b915050600a82611f209190613c5d565b9150611efd565b60008167ffffffffffffffff811115611f4357611f42612daf565b5b6040519080825280601f01601f191660200182016040528015611f755781602001600182028036833780820191505090505b5090505b6000851461200257600182611f8e9190613b68565b9150600a85611f9d9190613c8e565b6030611fa9919061349d565b60f81b818381518110611fbf57611fbe61353c565b5b60200101907effffffffffffffffffffffffffffffffffffffffffffffffffffffffffffff1916908160001a905350600a85611ffb9190613c5d565b9450611f79565b8093505050505b919050565b60007f01ffc9a7000000000000000000000000000000000000000000000000000000007bffffffffffffffffffffffffffffffffffffffffffffffffffffffff1916827bffffffffffffffffffffffffffffffffffffffffffffffffffffffff1916149050919050565b61208383838361237e565b600073ffffffffffffffffffffffffffffffffffffffff168373ffffffffffffffffffffffffffffffffffffffff1614156120c6576120c181612383565b612105565b8173ffffffffffffffffffffffffffffffffffffffff168373ffffffffffffffffffffffffffffffffffffffff16146121045761210383826123cc565b5b5b600073ffffffffffffffffffffffffffffffffffffffff168273ffffffffffffffffffffffffffffffffffffffff1614156121485761214381612539565b612187565b8273ffffffffffffffffffffffffffffffffffffffff168273ffffffffffffffffffffffffffffffffffffffff161461218657612185828261260a565b5b5b505050565b6121968383612689565b6121a360008484846121e7565b6121e2576040517f08c379a00000000000000000000000000000000000000000000000000000000081526004016121d990613c0e565b60405180910390fd5b505050565b60006122088473ffffffffffffffffffffffffffffffffffffffff16612857565b15612371578373ffffffffffffffffffffffffffffffffffffffff1663150b7a02612231611874565b8786866040518563ffffffff1660e01b81526004016122539493929190613d14565b602060405180830381600087803b15801561226d57600080fd5b505af192505050801561229e57506040513d601f19601f8201168201806040525081019061229b9190613d75565b60015b612321573d80600081146122ce576040519150601f19603f3d011682016040523d82523d6000602084013e6122d3565b606091505b50600081511415612319576040517f08c379a000000000000000000000000000000000000000000000000000000000815260040161231090613c0e565b60405180910390fd5b805181602001fd5b63150b7a0260e01b7bffffffffffffffffffffffffffffffffffffffffffffffffffffffff1916817bffffffffffffffffffffffffffffffffffffffffffffffffffffffff191614915050612376565b600190505b949350505050565b505050565b6008805490506009600083815260200190815260200160002081905550600881908060018154018082558091505060019003906000526020600020016000909190919091505550565b600060016123d984611063565b6123e39190613b68565b90506000600760008481526020019081526020016000205490508181146124c8576000600660008673ffffffffffffffffffffffffffffffffffffffff1673ffffffffffffffffffffffffffffffffffffffff168152602001908152602001600020600084815260200190815260200160002054905080600660008773ffffffffffffffffffffffffffffffffffffffff1673ffffffffffffffffffffffffffffffffffffffff168152602001908152602001600020600084815260200190815260200160002081905550816007600083815260200190815260200160002081905550505b6007600084815260200190815260200160002060009055600660008573ffffffffffffffffffffffffffffffffffffffff1673ffffffffffffffffffffffffffffffffffffffff16815260200190815260200160002060008381526020019081526020016000206000905550505050565b6000600160088054905061254d9190613b68565b905060006009600084815260200190815260200160002054905060006008838154811061257d5761257c61353c565b5b90600052602060002001549050806008838154811061259f5761259e61353c565b5b9060005260206000200181905550816009600083815260200190815260200160002081905550600960008581526020019081526020016000206000905560088054806125ee576125ed613da2565b5b6001900381819060005260206000200160009055905550505050565b600061261583611063565b905081600660008573ffffffffffffffffffffffffffffffffffffffff1673ffffffffffffffffffffffffffffffffffffffff168152602001908152602001600020600083815260200190815260200160002081905550806007600084815260200190815260200160002081905550505050565b600073ffffffffffffffffffffffffffffffffffffffff168273ffffffffffffffffffffffffffffffffffffffff1614156126f9576040517f08c379a00000000000000000000000000000000000000000000000000000000081526004016126f090613e1d565b60405180910390fd5b6127028161187c565b15612742576040517f08c379a000000000000000000000000000000000000000000000000000000000815260040161273990613e89565b60405180910390fd5b61274e60008383612078565b6001600360008473ffffffffffffffffffffffffffffffffffffffff1673ffffffffffffffffffffffffffffffffffffffff168152602001908152602001600020600082825461279e919061349d565b92505081905550816002600083815260200190815260200160002060006101000a81548173ffffffffffffffffffffffffffffffffffffffff021916908373ffffffffffffffffffffffffffffffffffffffff160217905550808273ffffffffffffffffffffffffffffffffffffffff16600073ffffffffffffffffffffffffffffffffffffffff167fddf252ad1be2c89b69c2b068fc378daa952ba7f163c4a11628f55a4df523b3ef60405160405180910390a45050565b600080823b905060008111915050919050565b82805461287690613162565b90600052602060002090601f01602090048101928261289857600085556128df565b82601f106128b157805160ff19168380011785556128df565b828001600101855582156128df579182015b828111156128de5782518255916020019190600101906128c3565b5b5090506128ec91906128f0565b5090565b5b808211156129095760008160009055506001016128f1565b5090565b6000604051905090565b600080fd5b600080fd5b60007fffffffff0000000000000000000000000000000000000000000000000000000082169050919050565b61295681612921565b811461296157600080fd5b50565b6000813590506129738161294d565b92915050565b60006020828403121561298f5761298e612917565b5b600061299d84828501612964565b91505092915050565b60008115159050919050565b6129bb816129a6565b82525050565b60006020820190506129d660008301846129b2565b92915050565b6129e5816129a6565b81146129f057600080fd5b50565b600081359050612a02816129dc565b92915050565b600060208284031215612a1e57612a1d612917565b5b6000612a2c848285016129f3565b91505092915050565b600081519050919050565b600082825260208201905092915050565b60005b83811015612a6f578082015181840152602081019050612a54565b83811115612a7e576000848401525b50505050565b6000601f19601f8301169050919050565b6000612aa082612a35565b612aaa8185612a40565b9350612aba818560208601612a51565b612ac381612a84565b840191505092915050565b60006020820190508181036000830152612ae88184612a95565b905092915050565b6000819050919050565b612b0381612af0565b8114612b0e57600080fd5b50565b600081359050612b2081612afa565b92915050565b600060208284031215612b3c57612b3b612917565b5b6000612b4a84828501612b11565b91505092915050565b600073ffffffffffffffffffffffffffffffffffffffff82169050919050565b6000612b7e82612b53565b9050919050565b612b8e81612b73565b82525050565b6000602082019050612ba96000830184612b85565b92915050565b612bb881612b73565b8114612bc357600080fd5b50565b600081359050612bd581612baf565b92915050565b60008060408385031215612bf257612bf1612917565b5b6000612c0085828601612bc6565b9250506020612c1185828601612b11565b9150509250929050565b612c2481612af0565b82525050565b6000602082019050612c3f6000830184612c1b565b92915050565b600080600060608486031215612c5e57612c5d612917565b5b6000612c6c86828701612bc6565b9350506020612c7d86828701612bc6565b9250506040612c8e86828701612b11565b9150509250925092565b600060208284031215612cae57612cad612917565b5b6000612cbc84828501612bc6565b91505092915050565b600081519050919050565b600082825260208201905092915050565b6000819050602082019050919050565b612cfa81612af0565b82525050565b6000612d0c8383612cf1565b60208301905092915050565b6000602082019050919050565b6000612d3082612cc5565b612d3a8185612cd0565b9350612d4583612ce1565b8060005b83811015612d76578151612d5d8882612d00565b9750612d6883612d18565b925050600181019050612d49565b5085935050505092915050565b60006020820190508181036000830152612d9d8184612d25565b905092915050565b600080fd5b600080fd5b7f4e487b7100000000000000000000000000000000000000000000000000000000600052604160045260246000fd5b612de782612a84565b810181811067ffffffffffffffff82111715612e0657612e05612daf565b5b80604052505050565b6000612e1961290d565b9050612e258282612dde565b919050565b600067ffffffffffffffff821115612e4557612e44612daf565b5b612e4e82612a84565b9050602081019050919050565b82818337600083830152505050565b6000612e7d612e7884612e2a565b612e0f565b905082815260208101848484011115612e9957612e98612daa565b5b612ea4848285612e5b565b509392505050565b600082601f830112612ec157612ec0612da5565b5b8135612ed1848260208601612e6a565b91505092915050565b600060208284031215612ef057612eef612917565b5b600082013567ffffffffffffffff811115612f0e57612f0d61291c565b5b612f1a84828501612eac565b91505092915050565b60008060408385031215612f3a57612f39612917565b5b6000612f4885828601612bc6565b9250506020612f59858286016129f3565b9150509250929050565b600067ffffffffffffffff821115612f7e57612f7d612daf565b5b612f8782612a84565b9050602081019050919050565b6000612fa7612fa284612f63565b612e0f565b905082815260208101848484011115612fc357612fc2612daa565b5b612fce848285612e5b565b509392505050565b600082601f830112612feb57612fea612da5565b5b8135612ffb848260208601612f94565b91505092915050565b6000806000806080858703121561301e5761301d612917565b5b600061302c87828801612bc6565b945050602061303d87828801612bc6565b935050604061304e87828801612b11565b925050606085013567ffffffffffffffff81111561306f5761306e61291c565b5b61307b87828801612fd6565b91505092959194509250565b6000806040838503121561309e5761309d612917565b5b60006130ac85828601612bc6565b92505060206130bd85828601612bc6565b9150509250929050565b7f4f776e61626c653a2063616c6c6572206973206e6f7420746865206f776e6572600082015250565b60006130fd602083612a40565b9150613108826130c7565b602082019050919050565b6000602082019050818103600083015261312c816130f0565b9050919050565b7f4e487b7100000000000000000000000000000000000000000000000000000000600052602260045260246000fd5b6000600282049050600182168061317a57607f821691505b6020821081141561318e5761318d613133565b5b50919050565b7f4552433732313a20617070726f76656420717565727920666f72206e6f6e657860008201527f697374656e7420746f6b656e0000000000000000000000000000000000000000602082015250565b60006131f0602c83612a40565b91506131fb82613194565b604082019050919050565b6000602082019050818103600083015261321f816131e3565b9050919050565b7f4552433732313a20617070726f76616c20746f2063757272656e74206f776e6560008201527f7200000000000000000000000000000000000000000000000000000000000000602082015250565b6000613282602183612a40565b915061328d82613226565b604082019050919050565b600060208201905081810360008301526132b181613275565b9050919050565b7f4552433732313a20617070726f76652063616c6c6572206973206e6f74206f7760008201527f6e6572206e6f7220617070726f76656420666f7220616c6c0000000000000000602082015250565b6000613314603883612a40565b915061331f826132b8565b604082019050919050565b6000602082019050818103600083015261334381613307565b9050919050565b7f4552433732313a207472616e736665722063616c6c6572206973206e6f74206f60008201527f776e6572206e6f7220617070726f766564000000000000000000000000000000602082015250565b60006133a6603183612a40565b91506133b18261334a565b604082019050919050565b600060208201905081810360008301526133d581613399565b9050919050565b7f455243373231456e756d657261626c653a206f776e657220696e646578206f7560008201527f74206f6620626f756e6473000000000000000000000000000000000000000000602082015250565b6000613438602b83612a40565b9150613443826133dc565b604082019050919050565b600060208201905081810360008301526134678161342b565b9050919050565b7f4e487b7100000000000000000000000000000000000000000000000000000000600052601160045260246000fd5b60006134a882612af0565b91506134b383612af0565b9250827fffffffffffffffffffffffffffffffffffffffffffffffffffffffffffffffff038211156134e8576134e761346e565b5b828201905092915050565b60006134fe82612af0565b91507fffffffffffffffffffffffffffffffffffffffffffffffffffffffffffffffff8214156135315761353061346e565b5b600182019050919050565b7f4e487b7100000000000000000000000000000000000000000000000000000000600052603260045260246000fd5b7f455243373231456e756d657261626c653a20676c6f62616c20696e646578206f60008201527f7574206f6620626f756e64730000000000000000000000000000000000000000602082015250565b60006135c7602c83612a40565b91506135d28261356b565b604082019050919050565b600060208201905081810360008301526135f6816135ba565b9050919050565b7f4552433732313a206f776e657220717565727920666f72206e6f6e657869737460008201527f656e7420746f6b656e0000000000000000000000000000000000000000000000602082015250565b6000613659602983612a40565b9150613664826135fd565b604082019050919050565b600060208201905081810360008301526136888161364c565b9050919050565b7f4552433732313a2062616c616e636520717565727920666f7220746865207a6560008201527f726f206164647265737300000000000000000000000000000000000000000000602082015250565b60006136eb602a83612a40565b91506136f68261368f565b604082019050919050565b6000602082019050818103600083015261371a816136de565b9050919050565b7f4552433732313a20617070726f766520746f2063616c6c657200000000000000600082015250565b6000613757601983612a40565b915061376282613721565b602082019050919050565b600060208201905081810360008301526137868161374a565b9050919050565b7f4552433732314d657461646174613a2055524920717565727920666f72206e6f60008201527f6e6578697374656e7420746f6b656e0000000000000000000000000000000000602082015250565b60006137e9602f83612a40565b91506137f48261378d565b604082019050919050565b60006020820190508181036000830152613818816137dc565b9050919050565b600081905092915050565b600061383582612a35565b61383f818561381f565b935061384f818560208601612a51565b80840191505092915050565b60008190508160005260206000209050919050565b6000815461387d81613162565b613887818661381f565b945060018216600081146138a257600181146138b3576138e6565b60ff198316865281860193506138e6565b6138bc8561385b565b60005b838110156138de578154818901526001820191506020810190506138bf565b838801955050505b50505092915050565b60006138fb828661382a565b9150613907828561382a565b91506139138284613870565b9150819050949350505050565b7f4f776e61626c653a206e6577206f776e657220697320746865207a65726f206160008201527f6464726573730000000000000000000000000000000000000000000000000000602082015250565b600061397c602683612a40565b915061398782613920565b604082019050919050565b600060208201905081810360008301526139ab8161396f565b9050919050565b7f4552433732313a206f70657261746f7220717565727920666f72206e6f6e657860008201527f697374656e7420746f6b656e0000000000000000000000000000000000000000602082015250565b6000613a0e602c83612a40565b9150613a19826139b2565b604082019050919050565b60006020820190508181036000830152613a3d81613a01565b9050919050565b7f4552433732313a207472616e73666572206f6620746f6b656e2074686174206960008201527f73206e6f74206f776e0000000000000000000000000000000000000000000000602082015250565b6000613aa0602983612a40565b9150613aab82613a44565b604082019050919050565b60006020820190508181036000830152613acf81613a93565b9050919050565b7f4552433732313a207472616e7366657220746f20746865207a65726f2061646460008201527f7265737300000000000000000000000000000000000000000000000000000000602082015250565b6000613b32602483612a40565b9150613b3d82613ad6565b604082019050919050565b60006020820190508181036000830152613b6181613b25565b9050919050565b6000613b7382612af0565b9150613b7e83612af0565b925082821015613b9157613b9061346e565b5b828203905092915050565b7f4552433732313a207472616e7366657220746f206e6f6e20455243373231526560008201527f63656976657220696d706c656d656e7465720000000000000000000000000000602082015250565b6000613bf8603283612a40565b9150613c0382613b9c565b604082019050919050565b60006020820190508181036000830152613c2781613beb565b9050919050565b7f4e487b7100000000000000000000000000000000000000000000000000000000600052601260045260246000fd5b6000613c6882612af0565b9150613c7383612af0565b925082613c8357613c82613c2e565b5b828204905092915050565b6000613c9982612af0565b9150613ca483612af0565b925082613cb457613cb3613c2e565b5b828206905092915050565b600081519050919050565b600082825260208201905092915050565b6000613ce682613cbf565b613cf08185613cca565b9350613d00818560208601612a51565b613d0981612a84565b840191505092915050565b6000608082019050613d296000830187612b85565b613d366020830186612b85565b613d436040830185612c1b565b8181036060830152613d558184613cdb565b905095945050505050565b600081519050613d6f8161294d565b92915050565b600060208284031215613d8b57613d8a612917565b5b6000613d9984828501613d60565b91505092915050565b7f4e487b7100000000000000000000000000000000000000000000000000000000600052603160045260246000fd5b7f4552433732313a206d696e7420746f20746865207a65726f2061646472657373600082015250565b6000613e07602083612a40565b9150613e1282613dd1565b602082019050919050565b60006020820190508181036000830152613e3681613dfa565b9050919050565b7f4552433732313a20746f6b656e20616c7265616479206d696e74656400000000600082015250565b6000613e73601c83612a40565b9150613e7e82613e3d565b602082019050919050565b60006020820190508181036000830152613ea281613e66565b905091905056fea2646970667358221220aa3180b6029a62e20034385b9987326e6986f571f2f07319b5d99a8e1dd21a2864736f6c63430008090033",
  "immutableReferences": {},
  "source": "// SPDX-License-Identifier: MIT\r\n\r\n\r\npragma solidity ^0.8.0;\r\n\r\nimport \"@openzeppelin/contracts/access/Ownable.sol\";\r\nimport \"@openzeppelin/contracts/token/ERC721/extensions/ERC721Enumerable.sol\";\r\n\r\ncontract NFT_token is ERC721Enumerable, Ownable{\r\n    using Strings for uint256;\r\n    \r\n    \r\n    //ERC721 constructor\r\n    constructor(\r\n        string memory _name,\r\n        string memory _symbol\r\n        )ERC721(_name, _symbol) {\r\n        }\r\n    \r\n    //Basic Variables\r\n    \r\n    string public baseURI =\"\";                      //url of nfts\r\n    string public baseExtension = \".json\";      //extension of base files\r\n    uint256 public maxSupply = 10000;           //max number of nft that can be minted\r\n    uint256 public maxMintAmount = 20;          //max number of nft that can be minted in one go\r\n    bool public paused = false;                 //paused change the\r\n                 \r\n        \r\n    // To change url of nfts\r\n    function setBaseURI(string memory _newBaseURI) public onlyOwner {\r\n            baseURI = _newBaseURI;\r\n        }\r\n    \r\n        \r\n    // To change max mint amount of nfts\r\n    function setmaxMintAmount(uint256 _newmaxMintAmount) public onlyOwner() {\r\n             maxMintAmount = _newmaxMintAmount;\r\n        }\r\n        \r\n    // To change state of process of nfts\r\n    function pause(bool _state) public onlyOwner {\r\n            paused = _state;\r\n        }\r\n\r\n       \r\n     // To change the max amount of token owner can hold \r\n    function setMaxSupply(uint256 _newmaxSupply) public onlyOwner {\r\n            maxSupply=_newmaxSupply;\r\n        }\r\n        \r\n    //Mint nfts to owner\r\n    function mint(address _to,uint256 _mintAmount) public payable onlyOwner{\r\n        \r\n            uint supply = totalSupply();                        //Extract total number of nft for an address\r\n            require(!paused);                                   //make sure contract is not paused\r\n            require(_mintAmount > 0);                           //make sure mint amount is >0\r\n            require(_mintAmount <= maxMintAmount);              //make sure mint amount do not exceed max mint amount at a time\r\n            require(supply + _mintAmount <= maxSupply);         //total number of nft must be less than total supply\r\n            \r\n            \r\n            for (uint256 i=1; i<= _mintAmount; i++) {\r\n                _safeMint(_to,supply+i);\r\n            }\r\n            \r\n        }\r\n        \r\n    function walletOfOwner(address _owner) public view returns(uint256[] memory) {\r\n            uint256 ownerTokenCount = balanceOf(_owner);\r\n            uint256[] memory tokenIds = new uint256[](ownerTokenCount);\r\n            for(uint256 i=0; i<ownerTokenCount; i++) {\r\n                tokenIds[i] = tokenOfOwnerByIndex(_owner,i);\r\n            }\r\n            return tokenIds;\r\n        }\r\n        \r\n    function tokenURI(uint256 tokenId) public view virtual override returns (string memory) {\r\n            require(_exists(tokenId), \"ERC721Metadata: URI query for nonexistent token\");\r\n            \r\n            string memory currentBaseURI = _baseURI();\r\n            return bytes(currentBaseURI).length > 0 \r\n            ? string(abi.encodePacked(currentBaseURI, tokenId.toString(),baseExtension)) \r\n            : \"\";\r\n        }   \r\n    function _baseURI() internal view virtual override returns (string memory) {\r\n        return baseURI;\r\n    }\r\n}",
  "sourcePath": "D:\\mainnetdeploy\\contracts\\Token.sol",
  "compiler": {
    "name": "solc",
    "version": "0.8.9+commit.e5eed63a.Emscripten.clang"
  },
  "schemaVersion": "3.4.3",
  "updatedAt": "2021-10-07T08:31:19.714Z",
  "devdoc": {
    "kind": "dev",
    "methods": {
      "approve(address,uint256)": {
        "details": "See {IERC721-approve}."
      },
      "balanceOf(address)": {
        "details": "See {IERC721-balanceOf}."
      },
      "getApproved(uint256)": {
        "details": "See {IERC721-getApproved}."
      },
      "isApprovedForAll(address,address)": {
        "details": "See {IERC721-isApprovedForAll}."
      },
      "name()": {
        "details": "See {IERC721Metadata-name}."
      },
      "owner()": {
        "details": "Returns the address of the current owner."
      },
      "ownerOf(uint256)": {
        "details": "See {IERC721-ownerOf}."
      },
      "renounceOwnership()": {
        "details": "Leaves the contract without owner. It will not be possible to call `onlyOwner` functions anymore. Can only be called by the current owner. NOTE: Renouncing ownership will leave the contract without an owner, thereby removing any functionality that is only available to the owner."
      },
      "safeTransferFrom(address,address,uint256)": {
        "details": "See {IERC721-safeTransferFrom}."
      },
      "safeTransferFrom(address,address,uint256,bytes)": {
        "details": "See {IERC721-safeTransferFrom}."
      },
      "setApprovalForAll(address,bool)": {
        "details": "See {IERC721-setApprovalForAll}."
      },
      "supportsInterface(bytes4)": {
        "details": "See {IERC165-supportsInterface}."
      },
      "symbol()": {
        "details": "See {IERC721Metadata-symbol}."
      },
      "tokenByIndex(uint256)": {
        "details": "See {IERC721Enumerable-tokenByIndex}."
      },
      "tokenOfOwnerByIndex(address,uint256)": {
        "details": "See {IERC721Enumerable-tokenOfOwnerByIndex}."
      },
      "tokenURI(uint256)": {
        "details": "See {IERC721Metadata-tokenURI}."
      },
      "totalSupply()": {
        "details": "See {IERC721Enumerable-totalSupply}."
      },
      "transferFrom(address,address,uint256)": {
        "details": "See {IERC721-transferFrom}."
      },
      "transferOwnership(address)": {
        "details": "Transfers ownership of the contract to a new account (`newOwner`). Can only be called by the current owner."
      }
    },
    "version": 1
  },
  "userdoc": {
    "kind": "user",
    "methods": {},
    "version": 1
  }
}